{
  "contractName": "Auction",
  "abi": [
    {
      "inputs": [],
      "payable": false,
      "stateMutability": "nonpayable",
      "type": "constructor"
    },
    {
      "constant": true,
      "inputs": [],
      "name": "beneficiary",
      "outputs": [
        {
          "internalType": "address payable",
          "name": "",
          "type": "address"
        }
      ],
      "payable": false,
      "stateMutability": "view",
      "type": "function"
    },
    {
      "constant": true,
      "inputs": [],
      "name": "highestBid",
      "outputs": [
        {
          "internalType": "uint256",
          "name": "",
          "type": "uint256"
        }
      ],
      "payable": false,
      "stateMutability": "view",
      "type": "function"
    },
    {
      "constant": true,
      "inputs": [],
      "name": "highestBidder",
      "outputs": [
        {
          "internalType": "address",
          "name": "",
          "type": "address"
        }
      ],
      "payable": false,
      "stateMutability": "view",
      "type": "function"
    },
    {
      "constant": true,
      "inputs": [],
      "name": "status",
      "outputs": [
        {
          "internalType": "bool",
          "name": "",
          "type": "bool"
        }
      ],
      "payable": false,
      "stateMutability": "view",
      "type": "function"
    },
    {
      "constant": false,
      "inputs": [],
      "name": "bid",
      "outputs": [],
      "payable": true,
      "stateMutability": "payable",
      "type": "function"
    },
    {
      "constant": false,
      "inputs": [],
      "name": "withdraw",
      "outputs": [
        {
          "internalType": "bool",
          "name": "",
          "type": "bool"
        }
      ],
      "payable": false,
      "stateMutability": "nonpayable",
      "type": "function"
    },
    {
      "constant": false,
      "inputs": [],
      "name": "auctionEnd",
      "outputs": [],
      "payable": false,
      "stateMutability": "nonpayable",
      "type": "function"
    }
  ],
  "bytecode": "0x60806040526001600360006101000a81548160ff02191690831515021790555034801561002b57600080fd5b50336000806101000a81548173ffffffffffffffffffffffffffffffffffffffff021916908373ffffffffffffffffffffffffffffffffffffffff1602179055506104fe8061007b6000396000f3fe6080604052600436106100705760003560e01c806338af3eed1161004e57806338af3eed146100c55780633ccfd60b1461011c57806391f901571461014b578063d57bde79146101a257610070565b80631998aeef14610075578063200d2ed21461007f5780632a24f46c146100ae575b600080fd5b61007d6101cd565b005b34801561008b57600080fd5b506100946102ae565b604051808215151515815260200191505060405180910390f35b3480156100ba57600080fd5b506100c36102c1565b005b3480156100d157600080fd5b506100da610398565b604051808273ffffffffffffffffffffffffffffffffffffffff1673ffffffffffffffffffffffffffffffffffffffff16815260200191505060405180910390f35b34801561012857600080fd5b506101316103bd565b604051808215151515815260200191505060405180910390f35b34801561015757600080fd5b5061016061049d565b604051808273ffffffffffffffffffffffffffffffffffffffff1673ffffffffffffffffffffffffffffffffffffffff16815260200191505060405180910390f35b3480156101ae57600080fd5b506101b76104c3565b6040518082815260200191505060405180910390f35b600254341180156101ea5750600360009054906101000a900460ff165b6101f357600080fd5b60025460046000600160009054906101000a900473ffffffffffffffffffffffffffffffffffffffff1673ffffffffffffffffffffffffffffffffffffffff1673ffffffffffffffffffffffffffffffffffffffff1681526020019081526020016000206000828254019250508190555033600160006101000a81548173ffffffffffffffffffffffffffffffffffffffff021916908373ffffffffffffffffffffffffffffffffffffffff16021790555034600281905550565b600360009054906101000a900460ff1681565b6000809054906101000a900473ffffffffffffffffffffffffffffffffffffffff1673ffffffffffffffffffffffffffffffffffffffff163373ffffffffffffffffffffffffffffffffffffffff161480156103295750600360009054906101000a900460ff165b61033257600080fd5b3373ffffffffffffffffffffffffffffffffffffffff166108fc6002549081150290604051600060405180830381858888f1935050505015801561037a573d6000803e3d6000fd5b506000600360006101000a81548160ff021916908315150217905550565b6000809054906101000a900473ffffffffffffffffffffffffffffffffffffffff1681565b600080600460003373ffffffffffffffffffffffffffffffffffffffff1673ffffffffffffffffffffffffffffffffffffffff168152602001908152602001600020541115610495573373ffffffffffffffffffffffffffffffffffffffff166108fc600460003373ffffffffffffffffffffffffffffffffffffffff1673ffffffffffffffffffffffffffffffffffffffff168152602001908152602001600020549081150290604051600060405180830381858888f1935050505015801561048b573d6000803e3d6000fd5b506001905061049a565b600090505b90565b600160009054906101000a900473ffffffffffffffffffffffffffffffffffffffff1681565b6002548156fea265627a7a723158200c7eb8e1cf643f4916702a771f541f456244dcbe7e92a12b3294da63c38f308564736f6c63430005100032",
  "source": "pragma solidity ^0.5.0;\n\ncontract Auction {\n    address payable public beneficiary;\n\n    // Current state of the auction. You can create more variables if needed\n    address public highestBidder;\n    uint public highestBid;\n    bool public status = true;\n\n    // Allowed withdrawals of previous bids\n    mapping(address => uint) pendingReturns;\n\n    // Constructor\n    constructor() public {\n        beneficiary = msg.sender;\n    }\n\n    /// Bid on the auction with the value sent\n    /// together with this transaction.\n    /// The value will only be refunded if the\n    /// auction is not won.\n    function bid() public payable {\n\n        require(msg.value > highestBid && status);\n        // TODO If the bid is not higher than highestBid, send the\n        // money back. Use \"require\"\n\n        pendingReturns[highestBidder] += highestBid;\n        highestBidder = msg.sender;\n        highestBid = msg.value;\n\n        // TODO update state\n\n        // TODO store the previously highest bid in pendingReturns. That bidder\n        // will need to trigger withdraw() to get the money back.\n        // For example, A bids 5 ETH. Then, B bids 6 ETH and becomes the highest bidder.\n        // Store A and 5 ETH in pendingReturns.\n        // A will need to trigger withdraw() later to get that 5 ETH back.\n\n        // Sending back the money by simply using\n        // highestBidder.send(highestBid) is a security risk\n        // because it could execute an untrusted contract.\n        // It is always safer to let the recipients\n        // withdraw their money themselves.\n\n    }\n\n//----------------------------------------------------------------------------------------------------------------------------------------------------------------\n\n    /// Withdraw a bid that was overbid.\n    function withdraw() public returns (bool) {\n/*\nCheck for all the addresses in the map and return true if value exists\n*/\n        // TODO send back the amount in pendingReturns to the sender. Try to avoid the reentrancy attack. Return false if there is an error when sending\n        if (pendingReturns[msg.sender] > 0) {\n          msg.sender.transfer(pendingReturns[msg.sender]);\n          return true;\n        } else {\n          return false;\n        }\n\n    }\n//----------------------------------------------------------------------------------------------------------------------------------------------------------------\n\n    /// End the auction and send the highest bid\n    /// to the beneficiary.\n    function auctionEnd() public {\n        // TODO make sure that only the beneficiary can trigger this function. Use \"require\"\n        require(msg.sender == beneficiary && status);\n        msg.sender.transfer(highestBid);\n        status = false;\n        // TODO send money to the beneficiary account. Make sure that it can't call this auctionEnd() multiple times to drain money\n\n    }\n}\n\n/* Execution\nlet val = await Auction.deployed()\nlet accounts = await web3.eth.getAccounts()\nval.bid({from:accounts[3], value:3000000000000000000})\n\n*/\n",
  "sourcePath": "C:\\Study_references_UF\\Semester_2\\Blockchain\\Homework\\hw1-source\\hw1-source\\contracts\\Auction.sol",
  "compiler": {
    "name": "solc",
    "version": "0.5.16+commit.9c3226ce.Emscripten.clang"
  },
  "schemaVersion": "3.0.23",
  "updatedAt": "2020-02-23T15:17:19.451Z",
  "networkType": "ethereum",
  "devdoc": {
    "methods": {}
  },
  "userdoc": {
    "methods": {
      "auctionEnd()": {
        "notice": "End the auction and send the highest bid to the beneficiary."
      },
      "bid()": {
        "notice": "Bid on the auction with the value sent together with this transaction. The value will only be refunded if the auction is not won."
      },
      "withdraw()": {
        "notice": "Withdraw a bid that was overbid."
      }
    }
  }
}